{
    "_format": "hh-sol-artifact-1",
    "contractName": "WhitelistedUser",
    "sourceName": "contracts/whitelist.sol",
    "abi": [
        {
            "inputs": [],
            "stateMutability": "nonpayable",
            "type": "constructor"
        },
        {
            "anonymous": false,
            "inputs": [
                {
                    "indexed": false,
                    "internalType": "uint8",
                    "name": "version",
                    "type": "uint8"
                }
            ],
            "name": "Initialized",
            "type": "event"
        },
        {
            "inputs": [],
            "name": "getAdmin",
            "outputs": [
                {
                    "internalType": "address",
                    "name": "",
                    "type": "address"
                }
            ],
            "stateMutability": "view",
            "type": "function"
        },
        {
            "inputs": [],
            "name": "getRootHash",
            "outputs": [
                {
                    "internalType": "bytes32",
                    "name": "",
                    "type": "bytes32"
                }
            ],
            "stateMutability": "view",
            "type": "function"
        },
        {
            "inputs": [
                {
                    "internalType": "bytes32",
                    "name": "rootHashValue",
                    "type": "bytes32"
                }
            ],
            "name": "setrootHash",
            "outputs": [
                {
                    "internalType": "bool",
                    "name": "",
                    "type": "bool"
                }
            ],
            "stateMutability": "nonpayable",
            "type": "function"
        },
        {
            "inputs": [
                {
                    "internalType": "bytes32[]",
                    "name": "proof",
                    "type": "bytes32[]"
                },
                {
                    "internalType": "bytes32",
                    "name": "leaf",
                    "type": "bytes32"
                }
            ],
            "name": "verify",
            "outputs": [
                {
                    "internalType": "bool",
                    "name": "",
                    "type": "bool"
                }
            ],
            "stateMutability": "view",
            "type": "function"
        }
    ],
    "bytecode": "0x608060405234801561001057600080fd5b50600280546001600160a01b031916331790556102bc806100326000396000f3fe608060405234801561001057600080fd5b506004361061004c5760003560e01c80631f278c5b146100515780636e9960c31461007c57806380759f1f146100a4578063972a2a62146100b5575b600080fd5b61006761005f366004610156565b600190815590565b60405190151581526020015b60405180910390f35b60025460405173ffffffffffffffffffffffffffffffffffffffff9091168152602001610073565b600154604051908152602001610073565b6100676100c3366004610185565b60006100cf83836100d6565b9392505050565b600081815b845181101561011b57610107828683815181106100fa576100fa610249565b6020026020010151610127565b9150806101138161025f565b9150506100db565b50600154149392505050565b60008183106101435760008281526020849052604090206100cf565b60008381526020839052604090206100cf565b60006020828403121561016857600080fd5b5035919050565b634e487b7160e01b600052604160045260246000fd5b6000806040838503121561019857600080fd5b823567ffffffffffffffff808211156101b057600080fd5b818501915085601f8301126101c457600080fd5b81356020828211156101d8576101d861016f565b8160051b604051601f19603f830116810181811086821117156101fd576101fd61016f565b60405292835281830193508481018201928984111561021b57600080fd5b948201945b8386101561023957853585529482019493820193610220565b9997909101359750505050505050565b634e487b7160e01b600052603260045260246000fd5b60006001820161027f57634e487b7160e01b600052601160045260246000fd5b506001019056fea264697066735822122016a4de42de0ed42f539d889afc8fae71ac7d509ca4241e5d4d500870e1ad6a5e64736f6c634300080f0033",
    "linkReferences": {},
    "deployedLinkReferences": {}
}